{
  "contractName": "Auction",
  "abi": [
    {
      "inputs": [
        {
          "internalType": "address",
          "name": "_nftAddress",
          "type": "address"
        },
        {
          "internalType": "uint256",
          "name": "_nftId",
          "type": "uint256"
        },
        {
          "internalType": "address",
          "name": "_tokenAddress",
          "type": "address"
        },
        {
          "internalType": "uint256",
          "name": "_startingBid",
          "type": "uint256"
        },
        {
          "internalType": "uint256",
          "name": "_bidStep",
          "type": "uint256"
        },
        {
          "internalType": "uint256",
          "name": "_auctionPeriod",
          "type": "uint256"
        }
      ],
      "stateMutability": "nonpayable",
      "type": "constructor"
    },
    {
      "anonymous": false,
      "inputs": [
        {
          "indexed": true,
          "internalType": "address",
          "name": "sender",
          "type": "address"
        },
        {
          "indexed": false,
          "internalType": "uint256",
          "name": "amount",
          "type": "uint256"
        }
      ],
      "name": "Bid",
      "type": "event"
    },
    {
      "anonymous": false,
      "inputs": [
        {
          "indexed": false,
          "internalType": "address",
          "name": "winner",
          "type": "address"
        },
        {
          "indexed": false,
          "internalType": "uint256",
          "name": "amount",
          "type": "uint256"
        }
      ],
      "name": "End",
      "type": "event"
    },
    {
      "anonymous": false,
      "inputs": [],
      "name": "Start",
      "type": "event"
    },
    {
      "anonymous": false,
      "inputs": [
        {
          "indexed": true,
          "internalType": "address",
          "name": "bidder",
          "type": "address"
        },
        {
          "indexed": false,
          "internalType": "uint256",
          "name": "amount",
          "type": "uint256"
        }
      ],
      "name": "Withdraw",
      "type": "event"
    },
    {
      "inputs": [],
      "name": "balance",
      "outputs": [
        {
          "internalType": "uint256",
          "name": "",
          "type": "uint256"
        }
      ],
      "stateMutability": "view",
      "type": "function",
      "constant": true
    },
    {
      "inputs": [],
      "name": "bidStep",
      "outputs": [
        {
          "internalType": "uint256",
          "name": "",
          "type": "uint256"
        }
      ],
      "stateMutability": "view",
      "type": "function",
      "constant": true
    },
    {
      "inputs": [
        {
          "internalType": "address",
          "name": "",
          "type": "address"
        },
        {
          "internalType": "uint256",
          "name": "",
          "type": "uint256"
        }
      ],
      "name": "bids",
      "outputs": [
        {
          "internalType": "uint256",
          "name": "",
          "type": "uint256"
        }
      ],
      "stateMutability": "view",
      "type": "function",
      "constant": true
    },
    {
      "inputs": [],
      "name": "endAt",
      "outputs": [
        {
          "internalType": "uint256",
          "name": "",
          "type": "uint256"
        }
      ],
      "stateMutability": "view",
      "type": "function",
      "constant": true
    },
    {
      "inputs": [],
      "name": "ended",
      "outputs": [
        {
          "internalType": "bool",
          "name": "",
          "type": "bool"
        }
      ],
      "stateMutability": "view",
      "type": "function",
      "constant": true
    },
    {
      "inputs": [],
      "name": "highestBid",
      "outputs": [
        {
          "internalType": "uint256",
          "name": "",
          "type": "uint256"
        }
      ],
      "stateMutability": "view",
      "type": "function",
      "constant": true
    },
    {
      "inputs": [],
      "name": "highestBidder",
      "outputs": [
        {
          "internalType": "address",
          "name": "",
          "type": "address"
        }
      ],
      "stateMutability": "view",
      "type": "function",
      "constant": true
    },
    {
      "inputs": [],
      "name": "nft",
      "outputs": [
        {
          "internalType": "contract IERC721",
          "name": "",
          "type": "address"
        }
      ],
      "stateMutability": "view",
      "type": "function",
      "constant": true
    },
    {
      "inputs": [],
      "name": "nftId",
      "outputs": [
        {
          "internalType": "uint256",
          "name": "",
          "type": "uint256"
        }
      ],
      "stateMutability": "view",
      "type": "function",
      "constant": true
    },
    {
      "inputs": [],
      "name": "owner",
      "outputs": [
        {
          "internalType": "address",
          "name": "",
          "type": "address"
        }
      ],
      "stateMutability": "view",
      "type": "function",
      "constant": true
    },
    {
      "inputs": [],
      "name": "price",
      "outputs": [
        {
          "internalType": "uint256",
          "name": "",
          "type": "uint256"
        }
      ],
      "stateMutability": "view",
      "type": "function",
      "constant": true
    },
    {
      "inputs": [],
      "name": "started",
      "outputs": [
        {
          "internalType": "bool",
          "name": "",
          "type": "bool"
        }
      ],
      "stateMutability": "view",
      "type": "function",
      "constant": true
    },
    {
      "inputs": [],
      "name": "tokenAddress",
      "outputs": [
        {
          "internalType": "address",
          "name": "",
          "type": "address"
        }
      ],
      "stateMutability": "view",
      "type": "function",
      "constant": true
    },
    {
      "inputs": [],
      "name": "start",
      "outputs": [],
      "stateMutability": "nonpayable",
      "type": "function"
    },
    {
      "inputs": [
        {
          "internalType": "uint256",
          "name": "_value",
          "type": "uint256"
        }
      ],
      "name": "bid",
      "outputs": [],
      "stateMutability": "nonpayable",
      "type": "function"
    },
    {
      "inputs": [],
      "name": "withdraw",
      "outputs": [],
      "stateMutability": "nonpayable",
      "type": "function"
    },
    {
      "inputs": [],
      "name": "end",
      "outputs": [],
      "stateMutability": "nonpayable",
      "type": "function"
    }
  ],
  "bytecode": "0x60806040523480156200001157600080fd5b5060405162001b4338038062001b438339818101604052810190620000379190620001cd565b856000806101000a81548173ffffffffffffffffffffffffffffffffffffffff021916908373ffffffffffffffffffffffffffffffffffffffff1602179055508460018190555033600260006101000a81548173ffffffffffffffffffffffffffffffffffffffff021916908373ffffffffffffffffffffffffffffffffffffffff16021790555082600781905550826008819055508160058190555083600b60006101000a81548173ffffffffffffffffffffffffffffffffffffffff021916908373ffffffffffffffffffffffffffffffffffffffff16021790555080600c8190555050505050505062000269565b600080fd5b600073ffffffffffffffffffffffffffffffffffffffff82169050919050565b60006200015a826200012d565b9050919050565b6200016c816200014d565b81146200017857600080fd5b50565b6000815190506200018c8162000161565b92915050565b6000819050919050565b620001a78162000192565b8114620001b357600080fd5b50565b600081519050620001c7816200019c565b92915050565b60008060008060008060c08789031215620001ed57620001ec62000128565b5b6000620001fd89828a016200017b565b96505060206200021089828a01620001b6565b95505060406200022389828a016200017b565b94505060606200023689828a01620001b6565b93505060806200024989828a01620001b6565b92505060a06200025c89828a01620001b6565b9150509295509295509295565b6118ca80620002796000396000f3fe608060405234801561001057600080fd5b506004361061010b5760003560e01c80638da5cb5b116100a2578063b69ef8a811610071578063b69ef8a814610274578063be9a655514610292578063c6bc51821461029c578063d57bde79146102ba578063efbe1c1c146102d85761010b565b80638da5cb5b146101fc57806391f901571461021a5780639d76ea5814610238578063a035b1fe146102565761010b565b80633ccfd60b116100de5780633ccfd60b1461019a578063454a2ab3146101a457806347ccca02146101c05780637cc3ae8c146101de5761010b565b806301495c1c1461011057806312fa6feb1461014057806316ec07f61461015e5780631f2698ab1461017c575b600080fd5b61012a60048036038101906101259190611299565b6102e2565b60405161013791906112e8565b60405180910390f35b610148610313565b604051610155919061131e565b60405180910390f35b610166610326565b60405161017391906112e8565b60405180910390f35b61018461032c565b604051610191919061131e565b60405180910390f35b6101a261033f565b005b6101be60048036038101906101b99190611339565b6107e0565b005b6101c8610ab6565b6040516101d591906113c5565b60405180910390f35b6101e6610ada565b6040516101f391906112e8565b60405180910390f35b610204610ae0565b60405161021191906113ef565b60405180910390f35b610222610b06565b60405161022f91906113ef565b60405180910390f35b610240610b2c565b60405161024d91906113ef565b60405180910390f35b61025e610b52565b60405161026b91906112e8565b60405180910390f35b61027c610b58565b60405161028991906112e8565b60405180910390f35b61029a610b5e565b005b6102a4610d2c565b6040516102b191906112e8565b60405180910390f35b6102c2610d32565b6040516102cf91906112e8565b60405180910390f35b6102e0610d38565b005b600a60205281600052604060002081815481106102fe57600080fd5b90600052602060002001600091509150505481565b600460019054906101000a900460ff1681565b60055481565b600460009054906101000a900460ff1681565b61a8c060035411156104ff57600b60009054906101000a900473ffffffffffffffffffffffffffffffffffffffff1673ffffffffffffffffffffffffffffffffffffffff1663a9059cbb336103933361111c565b6040518363ffffffff1660e01b81526004016103b092919061140a565b600060405180830381600087803b1580156103ca57600080fd5b505af11580156103de573d6000803e3d6000fd5b505050503373ffffffffffffffffffffffffffffffffffffffff167f884edad9ce6fa2440d8a54cc123490eb96d2768479d49ff9c7366125a94243646104233361111c565b60405161043091906112e8565b60405180910390a260005b600a60003373ffffffffffffffffffffffffffffffffffffffff1673ffffffffffffffffffffffffffffffffffffffff168152602001908152602001600020805490508110156104f9576000600a60003373ffffffffffffffffffffffffffffffffffffffff1673ffffffffffffffffffffffffffffffffffffffff16815260200190815260200160002082815481106104d8576104d7611433565b5b906000526020600020018190555080806104f190611491565b91505061043b565b506107de565b600b60009054906101000a900473ffffffffffffffffffffffffffffffffffffffff1673ffffffffffffffffffffffffffffffffffffffff1663a9059cbb33600a60003373ffffffffffffffffffffffffffffffffffffffff1673ffffffffffffffffffffffffffffffffffffffff1681526020019081526020016000206001600a60003373ffffffffffffffffffffffffffffffffffffffff1673ffffffffffffffffffffffffffffffffffffffff168152602001908152602001600020805490506105cc91906114da565b815481106105dd576105dc611433565b5b90600052602060002001546040518363ffffffff1660e01b815260040161060592919061140a565b600060405180830381600087803b15801561061f57600080fd5b505af1158015610633573d6000803e3d6000fd5b505050503373ffffffffffffffffffffffffffffffffffffffff167f884edad9ce6fa2440d8a54cc123490eb96d2768479d49ff9c7366125a9424364600a60003373ffffffffffffffffffffffffffffffffffffffff1673ffffffffffffffffffffffffffffffffffffffff1681526020019081526020016000206001600a60003373ffffffffffffffffffffffffffffffffffffffff1673ffffffffffffffffffffffffffffffffffffffff168152602001908152602001600020805490506106fd91906114da565b8154811061070e5761070d611433565b5b906000526020600020015460405161072691906112e8565b60405180910390a26000600a60003373ffffffffffffffffffffffffffffffffffffffff1673ffffffffffffffffffffffffffffffffffffffff1681526020019081526020016000206001600a60003373ffffffffffffffffffffffffffffffffffffffff1673ffffffffffffffffffffffffffffffffffffffff168152602001908152602001600020805490506107be91906114da565b815481106107cf576107ce611433565b5b90600052602060002001819055505b565b600460009054906101000a900460ff1661082f576040517f08c379a00000000000000000000000000000000000000000000000000000000081526004016108269061156b565b60405180910390fd5b6003544210610873576040517f08c379a000000000000000000000000000000000000000000000000000000000815260040161086a906115d7565b60405180910390fd5b6000600554826108839190611626565b8261088e91906114da565b905060075481116108d4576040517f08c379a00000000000000000000000000000000000000000000000000000000081526004016108cb906116a3565b60405180910390fd5b600073ffffffffffffffffffffffffffffffffffffffff16600660009054906101000a900473ffffffffffffffffffffffffffffffffffffffff1673ffffffffffffffffffffffffffffffffffffffff1614610a1357600754600a6000600660009054906101000a900473ffffffffffffffffffffffffffffffffffffffff1673ffffffffffffffffffffffffffffffffffffffff1673ffffffffffffffffffffffffffffffffffffffff168152602001908152602001600020600a6000600660009054906101000a900473ffffffffffffffffffffffffffffffffffffffff1673ffffffffffffffffffffffffffffffffffffffff1673ffffffffffffffffffffffffffffffffffffffff1681526020019081526020016000208054905081548110610a0457610a03611433565b5b90600052602060002001819055505b33600660006101000a81548173ffffffffffffffffffffffffffffffffffffffff021916908373ffffffffffffffffffffffffffffffffffffffff160217905550600754600881905550816007819055503373ffffffffffffffffffffffffffffffffffffffff167fe684a55f31b79eca403df938249029212a5925ec6be8012e099b45bc1019e5d283604051610aaa91906112e8565b60405180910390a25050565b60008054906101000a900473ffffffffffffffffffffffffffffffffffffffff1681565b60035481565b600260009054906101000a900473ffffffffffffffffffffffffffffffffffffffff1681565b600660009054906101000a900473ffffffffffffffffffffffffffffffffffffffff1681565b600b60009054906101000a900473ffffffffffffffffffffffffffffffffffffffff1681565b60085481565b60095481565b600460009054906101000a900460ff1615610bae576040517f08c379a0000000000000000000000000000000000000000000000000000000008152600401610ba59061170f565b60405180910390fd5b600260009054906101000a900473ffffffffffffffffffffffffffffffffffffffff1673ffffffffffffffffffffffffffffffffffffffff163373ffffffffffffffffffffffffffffffffffffffff1614610c3e576040517f08c379a0000000000000000000000000000000000000000000000000000000008152600401610c359061177b565b60405180910390fd5b60008054906101000a900473ffffffffffffffffffffffffffffffffffffffff1673ffffffffffffffffffffffffffffffffffffffff166323b872dd33306001546040518463ffffffff1660e01b8152600401610c9d9392919061179b565b600060405180830381600087803b158015610cb757600080fd5b505af1158015610ccb573d6000803e3d6000fd5b505050506001600460006101000a81548160ff021916908315150217905550600c5442610cf891906117d2565b6003819055507f1b55ba3aa851a46be3b365aee5b5c140edd620d578922f3e8466d2cbd96f954b60405160405180910390a1565b60015481565b60075481565b600460009054906101000a900460ff16610d87576040517f08c379a0000000000000000000000000000000000000000000000000000000008152600401610d7e9061156b565b60405180910390fd5b600354421015610dcc576040517f08c379a0000000000000000000000000000000000000000000000000000000008152600401610dc390611874565b60405180910390fd5b600460019054906101000a900460ff1615610e1c576040517f08c379a0000000000000000000000000000000000000000000000000000000008152600401610e13906115d7565b60405180910390fd5b6001600460016101000a81548160ff0219169083151502179055506000600554600854610e4991906117d2565b9050600073ffffffffffffffffffffffffffffffffffffffff16600660009054906101000a900473ffffffffffffffffffffffffffffffffffffffff1673ffffffffffffffffffffffffffffffffffffffff161461100a5760008054906101000a900473ffffffffffffffffffffffffffffffffffffffff1673ffffffffffffffffffffffffffffffffffffffff166342842e0e30600660009054906101000a900473ffffffffffffffffffffffffffffffffffffffff166001546040518463ffffffff1660e01b8152600401610f229392919061179b565b600060405180830381600087803b158015610f3c57600080fd5b505af1158015610f50573d6000803e3d6000fd5b50505050600b60009054906101000a900473ffffffffffffffffffffffffffffffffffffffff1673ffffffffffffffffffffffffffffffffffffffff1663a9059cbb600260009054906101000a900473ffffffffffffffffffffffffffffffffffffffff16836040518363ffffffff1660e01b8152600401610fd392919061140a565b600060405180830381600087803b158015610fed57600080fd5b505af1158015611001573d6000803e3d6000fd5b505050506110be565b60008054906101000a900473ffffffffffffffffffffffffffffffffffffffff1673ffffffffffffffffffffffffffffffffffffffff166342842e0e30600260009054906101000a900473ffffffffffffffffffffffffffffffffffffffff166001546040518463ffffffff1660e01b815260040161108b9392919061179b565b600060405180830381600087803b1580156110a557600080fd5b505af11580156110b9573d6000803e3d6000fd5b505050505b7f7d7570b046e5ead3a4f3fbc9fa2445113625a1e79823776146316bafed6b8cc5600660009054906101000a900473ffffffffffffffffffffffffffffffffffffffff168260405161111192919061140a565b60405180910390a150565b600080600090505b600a60008473ffffffffffffffffffffffffffffffffffffffff1673ffffffffffffffffffffffffffffffffffffffff168152602001908152602001600020805490508110156111f557600a60008473ffffffffffffffffffffffffffffffffffffffff1673ffffffffffffffffffffffffffffffffffffffff16815260200190815260200160002081815481106111bf576111be611433565b5b9060005260206000200154600960008282546111db91906117d2565b9250508190555080806111ed90611491565b915050611124565b506009549050919050565b600080fd5b600073ffffffffffffffffffffffffffffffffffffffff82169050919050565b600061123082611205565b9050919050565b61124081611225565b811461124b57600080fd5b50565b60008135905061125d81611237565b92915050565b6000819050919050565b61127681611263565b811461128157600080fd5b50565b6000813590506112938161126d565b92915050565b600080604083850312156112b0576112af611200565b5b60006112be8582860161124e565b92505060206112cf85828601611284565b9150509250929050565b6112e281611263565b82525050565b60006020820190506112fd60008301846112d9565b92915050565b60008115159050919050565b61131881611303565b82525050565b6000602082019050611333600083018461130f565b92915050565b60006020828403121561134f5761134e611200565b5b600061135d84828501611284565b91505092915050565b6000819050919050565b600061138b61138661138184611205565b611366565b611205565b9050919050565b600061139d82611370565b9050919050565b60006113af82611392565b9050919050565b6113bf816113a4565b82525050565b60006020820190506113da60008301846113b6565b92915050565b6113e981611225565b82525050565b600060208201905061140460008301846113e0565b92915050565b600060408201905061141f60008301856113e0565b61142c60208301846112d9565b9392505050565b7f4e487b7100000000000000000000000000000000000000000000000000000000600052603260045260246000fd5b7f4e487b7100000000000000000000000000000000000000000000000000000000600052601160045260246000fd5b600061149c82611263565b91507fffffffffffffffffffffffffffffffffffffffffffffffffffffffffffffffff8214156114cf576114ce611462565b5b600182019050919050565b60006114e582611263565b91506114f083611263565b92508282101561150357611502611462565b5b828203905092915050565b600082825260208201905092915050565b7f6e6f742073746172746564000000000000000000000000000000000000000000600082015250565b6000611555600b8361150e565b91506115608261151f565b602082019050919050565b6000602082019050818103600083015261158481611548565b9050919050565b7f656e646564000000000000000000000000000000000000000000000000000000600082015250565b60006115c160058361150e565b91506115cc8261158b565b602082019050919050565b600060208201905081810360008301526115f0816115b4565b9050919050565b7f4e487b7100000000000000000000000000000000000000000000000000000000600052601260045260246000fd5b600061163182611263565b915061163c83611263565b92508261164c5761164b6115f7565b5b828206905092915050565b7f76616c7565203c20686967686573740000000000000000000000000000000000600082015250565b600061168d600f8361150e565b915061169882611657565b602082019050919050565b600060208201905081810360008301526116bc81611680565b9050919050565b7f7374617274656400000000000000000000000000000000000000000000000000600082015250565b60006116f960078361150e565b9150611704826116c3565b602082019050919050565b60006020820190508181036000830152611728816116ec565b9050919050565b7f6e6f742073656c6c657200000000000000000000000000000000000000000000600082015250565b6000611765600a8361150e565b91506117708261172f565b602082019050919050565b6000602082019050818103600083015261179481611758565b9050919050565b60006060820190506117b060008301866113e0565b6117bd60208301856113e0565b6117ca60408301846112d9565b949350505050565b60006117dd82611263565b91506117e883611263565b9250827fffffffffffffffffffffffffffffffffffffffffffffffffffffffffffffffff0382111561181d5761181c611462565b5b828201905092915050565b7f6e6f7420656e6465640000000000000000000000000000000000000000000000600082015250565b600061185e60098361150e565b915061186982611828565b602082019050919050565b6000602082019050818103600083015261188d81611851565b905091905056fea2646970667358221220f3882c666252d7018d4ab510fab0befd54b0b406bfe797412efca431c9d2d43b64736f6c634300080b0033",
  "immutableReferences": {},
  "source": "// SPDX-License-Identifier: MIT\r\npragma solidity >=0.4.22 <0.9.0;\r\n\r\ninterface IERC721 {\r\n    function safeTransferFrom(\r\n        address from,\r\n        address to,\r\n        uint tokenId\r\n    ) external;\r\n\r\n    function transferFrom(\r\n        address,\r\n        address,\r\n        uint\r\n    ) external;\r\n}\r\n\r\ninterface IERC20 {\r\n    function transfer(\r\n        address,\r\n        uint\r\n    ) external;\r\n}\r\n\r\ncontract Auction {\r\n    event Start();\r\n    event Bid(address indexed sender, uint amount);\r\n    event Withdraw(address indexed bidder, uint amount);\r\n    event End(address winner, uint amount);\r\n\r\n    IERC721 public nft;\r\n    uint public nftId;    \r\n    address public owner;\r\n    uint public endAt;\r\n    bool public started;\r\n    bool public ended;\r\n    uint public bidStep;\r\n    address public highestBidder;\r\n    uint public highestBid;\r\n    uint public price;\r\n    uint public balance;\r\n    mapping(address => uint[]) public bids;\r\n    address public tokenAddress;\r\n    uint auctionPeriod;\r\n\r\n    constructor(\r\n        address _nftAddress,\r\n        uint _nftId,\r\n        address _tokenAddress,\r\n        uint _startingBid,\r\n        uint _bidStep,        \r\n        uint _auctionPeriod\r\n    ) {\r\n        nft = IERC721(_nftAddress);\r\n        nftId = _nftId;\r\n        owner = msg.sender;\r\n        highestBid = _startingBid;\r\n        price = _startingBid;\r\n        bidStep = _bidStep;\r\n        tokenAddress = _tokenAddress;\r\n        auctionPeriod = _auctionPeriod;\r\n    }\r\n\r\n    function start() external {\r\n        require(!started, \"started\");\r\n        require(msg.sender == owner, \"not seller\");\r\n\r\n        nft.transferFrom(msg.sender, address(this), nftId);\r\n        started = true;\r\n        endAt = block.timestamp + auctionPeriod;\r\n\r\n        emit Start();\r\n    }\r\n\r\n    function bid(uint _value) external {\r\n        require(started, \"not started\");\r\n        require(block.timestamp < endAt, \"ended\");\r\n        uint newBid = _value - (_value%bidStep);\r\n        require(newBid > highestBid, \"value < highest\");\r\n\r\n        if (highestBidder != address(0)) {\r\n            bids[highestBidder][bids[highestBidder].length] = highestBid;\r\n        }\r\n\r\n        highestBidder = msg.sender;\r\n        price = highestBid;\r\n        highestBid = _value;\r\n\r\n        emit Bid(msg.sender, _value);\r\n    }\r\n\r\n    function getBalance(address _address) private returns(uint) {\r\n        for (uint256 index = 0; index < bids[_address].length; index++) {\r\n            balance += bids[_address][index];\r\n        }\r\n        return balance;\r\n    }\r\n\r\n    function withdraw() external {\r\n        if (endAt > 12 hours) {\r\n            IERC20(tokenAddress).transfer(msg.sender, getBalance(msg.sender)); \r\n            emit Withdraw(msg.sender, getBalance(msg.sender));           \r\n            for (uint256 index = 0; index < bids[msg.sender].length; index++) {\r\n            bids[msg.sender][index] = 0;            \r\n        }\r\n        } else {\r\n            IERC20(tokenAddress).transfer(msg.sender, bids[msg.sender][bids[msg.sender].length-1]);\r\n            emit Withdraw(msg.sender, bids[msg.sender][bids[msg.sender].length-1]);\r\n            bids[msg.sender][bids[msg.sender].length-1] = 0;            \r\n        }\r\n        \r\n    }\r\n\r\n    function end() external {\r\n        require(started, \"not started\");\r\n        require(block.timestamp >= endAt, \"not ended\");\r\n        require(!ended, \"ended\");\r\n\r\n        ended = true;\r\n        uint _amount = price + bidStep;\r\n        if (highestBidder != address(0)) {\r\n            nft.safeTransferFrom(address(this), highestBidder, nftId);\r\n            IERC20(tokenAddress).transfer(owner, _amount);\r\n\r\n        } else {\r\n            nft.safeTransferFrom(address(this), owner, nftId);\r\n        }\r\n\r\n        emit End(highestBidder, _amount);\r\n    }\r\n}",
  "sourcePath": "C:\\Users\\1\\OneDrive\\\\AuctionNFT\\contracts\\Auction.sol",
  "compiler": {
    "name": "solc",
    "version": "0.8.11+commit.d7f03943.Emscripten.clang"
  },
  "schemaVersion": "3.4.4",
  "updatedAt": "2022-02-10T10:27:20.717Z",
  "networkType": "ethereum",
  "devdoc": {
    "kind": "dev",
    "methods": {},
    "version": 1
  },
  "userdoc": {
    "kind": "user",
    "methods": {},
    "version": 1
  }
}