{
  "contractName": "Auction",
  "abi": [
    {
      "inputs": [
        {
          "internalType": "address",
          "name": "_nftAddress",
          "type": "address"
        },
        {
          "internalType": "uint256",
          "name": "_nftId",
          "type": "uint256"
        },
        {
          "internalType": "address",
          "name": "_tokenAddress",
          "type": "address"
        },
        {
          "internalType": "uint256",
          "name": "_startingBid",
          "type": "uint256"
        },
        {
          "internalType": "uint256",
          "name": "_bidStep",
          "type": "uint256"
        },
        {
          "internalType": "uint256",
          "name": "_auctionPeriod",
          "type": "uint256"
        }
      ],
      "stateMutability": "nonpayable",
      "type": "constructor"
    },
    {
      "anonymous": false,
      "inputs": [
        {
          "indexed": true,
          "internalType": "address",
          "name": "sender",
          "type": "address"
        },
        {
          "indexed": false,
          "internalType": "uint256",
          "name": "amount",
          "type": "uint256"
        }
      ],
      "name": "Bid",
      "type": "event"
    },
    {
      "anonymous": false,
      "inputs": [
        {
          "indexed": false,
          "internalType": "address",
          "name": "winner",
          "type": "address"
        },
        {
          "indexed": false,
          "internalType": "uint256",
          "name": "amount",
          "type": "uint256"
        }
      ],
      "name": "End",
      "type": "event"
    },
    {
      "anonymous": false,
      "inputs": [],
      "name": "Start",
      "type": "event"
    },
    {
      "anonymous": false,
      "inputs": [
        {
          "indexed": true,
          "internalType": "address",
          "name": "bidder",
          "type": "address"
        },
        {
          "indexed": false,
          "internalType": "uint256",
          "name": "amount",
          "type": "uint256"
        }
      ],
      "name": "Withdraw",
      "type": "event"
    },
    {
      "inputs": [],
      "name": "auctionPeriod",
      "outputs": [
        {
          "internalType": "uint256",
          "name": "",
          "type": "uint256"
        }
      ],
      "stateMutability": "view",
      "type": "function"
    },
    {
      "inputs": [
        {
          "internalType": "address",
          "name": "",
          "type": "address"
        }
      ],
      "name": "balances",
      "outputs": [
        {
          "internalType": "uint256",
          "name": "",
          "type": "uint256"
        }
      ],
      "stateMutability": "view",
      "type": "function"
    },
    {
      "inputs": [],
      "name": "bidID",
      "outputs": [
        {
          "internalType": "uint256",
          "name": "",
          "type": "uint256"
        }
      ],
      "stateMutability": "view",
      "type": "function"
    },
    {
      "inputs": [],
      "name": "bidStep",
      "outputs": [
        {
          "internalType": "uint256",
          "name": "",
          "type": "uint256"
        }
      ],
      "stateMutability": "view",
      "type": "function"
    },
    {
      "inputs": [],
      "name": "ended",
      "outputs": [
        {
          "internalType": "bool",
          "name": "",
          "type": "bool"
        }
      ],
      "stateMutability": "view",
      "type": "function"
    },
    {
      "inputs": [],
      "name": "highestBid",
      "outputs": [
        {
          "internalType": "uint256",
          "name": "",
          "type": "uint256"
        }
      ],
      "stateMutability": "view",
      "type": "function"
    },
    {
      "inputs": [],
      "name": "highestBidder",
      "outputs": [
        {
          "internalType": "address",
          "name": "",
          "type": "address"
        }
      ],
      "stateMutability": "view",
      "type": "function"
    },
    {
      "inputs": [],
      "name": "nftAddress",
      "outputs": [
        {
          "internalType": "contract IERC721",
          "name": "",
          "type": "address"
        }
      ],
      "stateMutability": "view",
      "type": "function"
    },
    {
      "inputs": [],
      "name": "nftId",
      "outputs": [
        {
          "internalType": "uint256",
          "name": "",
          "type": "uint256"
        }
      ],
      "stateMutability": "view",
      "type": "function"
    },
    {
      "inputs": [],
      "name": "owner",
      "outputs": [
        {
          "internalType": "address",
          "name": "",
          "type": "address"
        }
      ],
      "stateMutability": "view",
      "type": "function"
    },
    {
      "inputs": [],
      "name": "price",
      "outputs": [
        {
          "internalType": "uint256",
          "name": "",
          "type": "uint256"
        }
      ],
      "stateMutability": "view",
      "type": "function"
    },
    {
      "inputs": [],
      "name": "startTime",
      "outputs": [
        {
          "internalType": "uint256",
          "name": "",
          "type": "uint256"
        }
      ],
      "stateMutability": "view",
      "type": "function"
    },
    {
      "inputs": [],
      "name": "started",
      "outputs": [
        {
          "internalType": "bool",
          "name": "",
          "type": "bool"
        }
      ],
      "stateMutability": "view",
      "type": "function"
    },
    {
      "inputs": [],
      "name": "stopTime",
      "outputs": [
        {
          "internalType": "uint256",
          "name": "",
          "type": "uint256"
        }
      ],
      "stateMutability": "view",
      "type": "function"
    },
    {
      "inputs": [],
      "name": "tokenAddress",
      "outputs": [
        {
          "internalType": "address",
          "name": "",
          "type": "address"
        }
      ],
      "stateMutability": "view",
      "type": "function"
    },
    {
      "inputs": [
        {
          "internalType": "uint256",
          "name": "",
          "type": "uint256"
        }
      ],
      "name": "usersAddr",
      "outputs": [
        {
          "internalType": "address",
          "name": "",
          "type": "address"
        }
      ],
      "stateMutability": "view",
      "type": "function"
    },
    {
      "inputs": [
        {
          "internalType": "uint256",
          "name": "",
          "type": "uint256"
        }
      ],
      "name": "usersBids",
      "outputs": [
        {
          "internalType": "uint256",
          "name": "",
          "type": "uint256"
        }
      ],
      "stateMutability": "view",
      "type": "function"
    },
    {
      "inputs": [],
      "name": "start",
      "outputs": [],
      "stateMutability": "nonpayable",
      "type": "function"
    },
    {
      "inputs": [
        {
          "internalType": "uint256",
          "name": "_amount",
          "type": "uint256"
        }
      ],
      "name": "bid",
      "outputs": [],
      "stateMutability": "nonpayable",
      "type": "function"
    },
    {
      "inputs": [
        {
          "internalType": "address",
          "name": "_address",
          "type": "address"
        }
      ],
      "name": "getBalance",
      "outputs": [
        {
          "internalType": "uint256",
          "name": "",
          "type": "uint256"
        }
      ],
      "stateMutability": "view",
      "type": "function"
    },
    {
      "inputs": [],
      "name": "withdraw",
      "outputs": [],
      "stateMutability": "nonpayable",
      "type": "function"
    },
    {
      "inputs": [],
      "name": "end",
      "outputs": [],
      "stateMutability": "nonpayable",
      "type": "function"
    },
    {
      "inputs": [],
      "name": "stop",
      "outputs": [],
      "stateMutability": "nonpayable",
      "type": "function"
    }
  ],
  "bytecode": "0x60806040523480156200001157600080fd5b50604051620023fb380380620023fb8339818101604052810190620000379190620001cd565b85600160006101000a81548173ffffffffffffffffffffffffffffffffffffffff021916908373ffffffffffffffffffffffffffffffffffffffff16021790555084600281905550336000806101000a81548173ffffffffffffffffffffffffffffffffffffffff021916908373ffffffffffffffffffffffffffffffffffffffff16021790555082600b8190555082600c819055508160098190555083600360006101000a81548173ffffffffffffffffffffffffffffffffffffffff021916908373ffffffffffffffffffffffffffffffffffffffff1602179055508060068190555050505050505062000269565b600080fd5b600073ffffffffffffffffffffffffffffffffffffffff82169050919050565b60006200015a826200012d565b9050919050565b6200016c816200014d565b81146200017857600080fd5b50565b6000815190506200018c8162000161565b92915050565b6000819050919050565b620001a78162000192565b8114620001b357600080fd5b50565b600081519050620001c7816200019c565b92915050565b60008060008060008060c08789031215620001ed57620001ec62000128565b5b6000620001fd89828a016200017b565b96505060206200021089828a01620001b6565b95505060406200022389828a016200017b565b94505060606200023689828a01620001b6565b93505060806200024989828a01620001b6565b92505060a06200025c89828a01620001b6565b9150509295509295509295565b61218280620002796000396000f3fe608060405234801561001057600080fd5b506004361061014d5760003560e01c80636003f316116100c3578063a035b1fe1161007c578063a035b1fe1461035c578063be9a65551461037a578063c6bc518214610384578063d57bde79146103a2578063efbe1c1c146103c0578063f8b2cb4f146103ca5761014d565b80636003f3161461029657806378e97925146102b45780638da5cb5b146102d257806391f90157146102f0578063925491361461030e5780639d76ea581461033e5761014d565b80631f2698ab116101155780631f2698ab146101d457806327e235e3146101f257806328cff1e4146102225780633ccfd60b14610252578063454a2ab31461025c5780635bf8633a146102785761014d565b806303ff5e731461015257806307da68f5146101705780630cccfc581461017a57806312fa6feb1461019857806316ec07f6146101b6575b600080fd5b61015a6103fa565b6040516101679190611a24565b60405180910390f35b610178610400565b005b61018261049f565b60405161018f9190611a24565b60405180910390f35b6101a06104a5565b6040516101ad9190611a5a565b60405180910390f35b6101be6104b8565b6040516101cb9190611a24565b60405180910390f35b6101dc6104be565b6040516101e99190611a5a565b60405180910390f35b61020c60048036038101906102079190611ad8565b6104d1565b6040516102199190611a24565b60405180910390f35b61023c60048036038101906102379190611b31565b6104e9565b6040516102499190611a24565b60405180910390f35b61025a610501565b005b61027660048036038101906102719190611b31565b610d7f565b005b6102806111f3565b60405161028d9190611bbd565b60405180910390f35b61029e611219565b6040516102ab9190611a24565b60405180910390f35b6102bc61121f565b6040516102c99190611a24565b60405180910390f35b6102da611225565b6040516102e79190611be7565b60405180910390f35b6102f8611249565b6040516103059190611be7565b60405180910390f35b61032860048036038101906103239190611b31565b61126f565b6040516103359190611be7565b60405180910390f35b6103466112a2565b6040516103539190611be7565b60405180910390f35b6103646112c8565b6040516103719190611a24565b60405180910390f35b6103826112ce565b005b61038c6114a5565b6040516103999190611a24565b60405180910390f35b6103aa6114ab565b6040516103b79190611a24565b60405180910390f35b6103c86114b1565b005b6103e460048036038101906103df9190611ad8565b6119c2565b6040516103f19190611a24565b60405180910390f35b60045481565b3373ffffffffffffffffffffffffffffffffffffffff1660008054906101000a900473ffffffffffffffffffffffffffffffffffffffff1673ffffffffffffffffffffffffffffffffffffffff161461048e576040517f08c379a000000000000000000000000000000000000000000000000000000000815260040161048590611c5f565b60405180910390fd5b4260048190555061049d6114b1565b565b60065481565b600760019054906101000a900460ff1681565b60095481565b600760009054906101000a900460ff1681565b600f6020528060005260406000206000915090505481565b600e6020528060005260406000206000915090505481565b61a8c0426004546105129190611cae565b118061052057506004544210155b1561097a57600360009054906101000a900473ffffffffffffffffffffffffffffffffffffffff1673ffffffffffffffffffffffffffffffffffffffff1663a9059cbb33600f60003373ffffffffffffffffffffffffffffffffffffffff1673ffffffffffffffffffffffffffffffffffffffff168152602001908152602001600020546040518363ffffffff1660e01b81526004016105c1929190611ce2565b600060405180830381600087803b1580156105db57600080fd5b505af11580156105ef573d6000803e3d6000fd5b505050503373ffffffffffffffffffffffffffffffffffffffff167f884edad9ce6fa2440d8a54cc123490eb96d2768479d49ff9c7366125a9424364600f60003373ffffffffffffffffffffffffffffffffffffffff1673ffffffffffffffffffffffffffffffffffffffff168152602001908152602001600020546040516106789190611a24565b60405180910390a26000600f60003373ffffffffffffffffffffffffffffffffffffffff1673ffffffffffffffffffffffffffffffffffffffff1681526020019081526020016000208190555060005b600854811015610766573373ffffffffffffffffffffffffffffffffffffffff16600d600083815260200190815260200160002060009054906101000a900473ffffffffffffffffffffffffffffffffffffffff1673ffffffffffffffffffffffffffffffffffffffff161415610753576000600e6000838152602001908152602001600020819055505b808061075e90611d0b565b9150506106c8565b50600a60009054906101000a900473ffffffffffffffffffffffffffffffffffffffff1673ffffffffffffffffffffffffffffffffffffffff163373ffffffffffffffffffffffffffffffffffffffff1614156109755760008060005b60085481101561090657600f6000600d600084815260200190815260200160002060009054906101000a900473ffffffffffffffffffffffffffffffffffffffff1673ffffffffffffffffffffffffffffffffffffffff1673ffffffffffffffffffffffffffffffffffffffff168152602001908152602001600020548210156108f357600f6000600d600084815260200190815260200160002060009054906101000a900473ffffffffffffffffffffffffffffffffffffffff1673ffffffffffffffffffffffffffffffffffffffff1673ffffffffffffffffffffffffffffffffffffffff168152602001908152602001600020549150600d600082815260200190815260200160002060009054906101000a900473ffffffffffffffffffffffffffffffffffffffff1692505b80806108fe90611d0b565b9150506107c3565b5081600a60006101000a81548173ffffffffffffffffffffffffffffffffffffffff021916908373ffffffffffffffffffffffffffffffffffffffff16021790555080600b81905550600954600b5461095f9190611d83565b600b5461096c9190611cae565b600c8190555050505b610d7d565b60008060085490505b60008110610a39573373ffffffffffffffffffffffffffffffffffffffff16600d600083815260200190815260200160002060009054906101000a900473ffffffffffffffffffffffffffffffffffffffff1673ffffffffffffffffffffffffffffffffffffffff161415610a2657600e60008281526020019081526020016000205491506000600e600083815260200190815260200160002081905550610a39565b8080610a3190611db4565b915050610983565b50600360009054906101000a900473ffffffffffffffffffffffffffffffffffffffff1673ffffffffffffffffffffffffffffffffffffffff1663a9059cbb33836040518363ffffffff1660e01b8152600401610a97929190611ce2565b600060405180830381600087803b158015610ab157600080fd5b505af1158015610ac5573d6000803e3d6000fd5b505050503373ffffffffffffffffffffffffffffffffffffffff167f884edad9ce6fa2440d8a54cc123490eb96d2768479d49ff9c7366125a942436482604051610b0f9190611a24565b60405180910390a280600f60003373ffffffffffffffffffffffffffffffffffffffff1673ffffffffffffffffffffffffffffffffffffffff1681526020019081526020016000206000828254610b669190611cae565b92505081905550600a60009054906101000a900473ffffffffffffffffffffffffffffffffffffffff1673ffffffffffffffffffffffffffffffffffffffff163373ffffffffffffffffffffffffffffffffffffffff161415610d7b5760008060005b600854811015610d0c57600f6000600d600084815260200190815260200160002060009054906101000a900473ffffffffffffffffffffffffffffffffffffffff1673ffffffffffffffffffffffffffffffffffffffff1673ffffffffffffffffffffffffffffffffffffffff16815260200190815260200160002054821015610cf957600f6000600d600084815260200190815260200160002060009054906101000a900473ffffffffffffffffffffffffffffffffffffffff1673ffffffffffffffffffffffffffffffffffffffff1673ffffffffffffffffffffffffffffffffffffffff168152602001908152602001600020549150600d600082815260200190815260200160002060009054906101000a900473ffffffffffffffffffffffffffffffffffffffff1692505b8080610d0490611d0b565b915050610bc9565b5081600a60006101000a81548173ffffffffffffffffffffffffffffffffffffffff021916908373ffffffffffffffffffffffffffffffffffffffff16021790555080600b81905550600954600b54610d659190611d83565b600b54610d729190611cae565b600c8190555050505b505b565b600760009054906101000a900460ff16610dce576040517f08c379a0000000000000000000000000000000000000000000000000000000008152600401610dc590611e2a565b60405180910390fd5b6004544210610e12576040517f08c379a0000000000000000000000000000000000000000000000000000000008152600401610e0990611e96565b60405180910390fd5b600060095482600f60003373ffffffffffffffffffffffffffffffffffffffff1673ffffffffffffffffffffffffffffffffffffffff16815260200190815260200160002054610e629190611eb6565b610e6c9190611d83565b82600f60003373ffffffffffffffffffffffffffffffffffffffff1673ffffffffffffffffffffffffffffffffffffffff16815260200190815260200160002054610eb79190611eb6565b610ec19190611cae565b9050600b5460095482610ed49190611eb6565b11610f14576040517f08c379a0000000000000000000000000000000000000000000000000000000008152600401610f0b90611f58565b60405180910390fd5b33600a60006101000a81548173ffffffffffffffffffffffffffffffffffffffff021916908373ffffffffffffffffffffffffffffffffffffffff160217905550600073ffffffffffffffffffffffffffffffffffffffff16600a60009054906101000a900473ffffffffffffffffffffffffffffffffffffffff1673ffffffffffffffffffffffffffffffffffffffff16146110885733600d6000600854815260200190815260200160002060006101000a81548173ffffffffffffffffffffffffffffffffffffffff021916908373ffffffffffffffffffffffffffffffffffffffff16021790555081600e600060085481526020019081526020016000208190555081600f60003373ffffffffffffffffffffffffffffffffffffffff1673ffffffffffffffffffffffffffffffffffffffff16815260200190815260200160002060008282546110689190611eb6565b925050819055506008600081548092919061108290611d0b565b91905055505b600954600954600b5461109b9190611d83565b600b546110a89190611cae565b6110b29190611eb6565b600c81905550600f60003373ffffffffffffffffffffffffffffffffffffffff1673ffffffffffffffffffffffffffffffffffffffff16815260200190815260200160002054600b81905550600360009054906101000a900473ffffffffffffffffffffffffffffffffffffffff1673ffffffffffffffffffffffffffffffffffffffff166323b872dd3330856040518463ffffffff1660e01b815260040161115d93929190611f78565b6020604051808303816000875af115801561117c573d6000803e3d6000fd5b505050506040513d601f19601f820116820180604052508101906111a09190611fdb565b503373ffffffffffffffffffffffffffffffffffffffff167fe684a55f31b79eca403df938249029212a5925ec6be8012e099b45bc1019e5d2836040516111e79190611a24565b60405180910390a25050565b600160009054906101000a900473ffffffffffffffffffffffffffffffffffffffff1681565b60085481565b60055481565b60008054906101000a900473ffffffffffffffffffffffffffffffffffffffff1681565b600a60009054906101000a900473ffffffffffffffffffffffffffffffffffffffff1681565b600d6020528060005260406000206000915054906101000a900473ffffffffffffffffffffffffffffffffffffffff1681565b600360009054906101000a900473ffffffffffffffffffffffffffffffffffffffff1681565b600c5481565b600760009054906101000a900460ff161561131e576040517f08c379a000000000000000000000000000000000000000000000000000000000815260040161131590612054565b60405180910390fd5b60008054906101000a900473ffffffffffffffffffffffffffffffffffffffff1673ffffffffffffffffffffffffffffffffffffffff163373ffffffffffffffffffffffffffffffffffffffff16146113ac576040517f08c379a00000000000000000000000000000000000000000000000000000000081526004016113a3906120c0565b60405180910390fd5b600160009054906101000a900473ffffffffffffffffffffffffffffffffffffffff1673ffffffffffffffffffffffffffffffffffffffff166323b872dd33306002546040518463ffffffff1660e01b815260040161140d93929190611f78565b600060405180830381600087803b15801561142757600080fd5b505af115801561143b573d6000803e3d6000fd5b505050506001600760006101000a81548160ff021916908315150217905550426005819055506006546005546114719190611eb6565b6004819055507f1b55ba3aa851a46be3b365aee5b5c140edd620d578922f3e8466d2cbd96f954b60405160405180910390a1565b60025481565b600b5481565b600760009054906101000a900460ff16611500576040517f08c379a00000000000000000000000000000000000000000000000000000000081526004016114f790611e2a565b60405180910390fd5b600454421015611545576040517f08c379a000000000000000000000000000000000000000000000000000000000815260040161153c9061212c565b60405180910390fd5b600760019054906101000a900460ff1615611595576040517f08c379a000000000000000000000000000000000000000000000000000000000815260040161158c90611e96565b60405180910390fd5b6001600760016101000a81548160ff021916908315150217905550600073ffffffffffffffffffffffffffffffffffffffff16600a60009054906101000a900473ffffffffffffffffffffffffffffffffffffffff1673ffffffffffffffffffffffffffffffffffffffff16146118af57600160009054906101000a900473ffffffffffffffffffffffffffffffffffffffff1673ffffffffffffffffffffffffffffffffffffffff166342842e0e30600a60009054906101000a900473ffffffffffffffffffffffffffffffffffffffff166002546040518463ffffffff1660e01b815260040161168993929190611f78565b600060405180830381600087803b1580156116a357600080fd5b505af11580156116b7573d6000803e3d6000fd5b50505050600360009054906101000a900473ffffffffffffffffffffffffffffffffffffffff1673ffffffffffffffffffffffffffffffffffffffff1663a9059cbb60008054906101000a900473ffffffffffffffffffffffffffffffffffffffff16600c546040518363ffffffff1660e01b815260040161173a929190611ce2565b600060405180830381600087803b15801561175457600080fd5b505af1158015611768573d6000803e3d6000fd5b50505050600c54600f6000600a60009054906101000a900473ffffffffffffffffffffffffffffffffffffffff1673ffffffffffffffffffffffffffffffffffffffff1673ffffffffffffffffffffffffffffffffffffffff16815260200190815260200160002060008282546117df9190611cae565b9250508190555060005b6008548110156118a957600a60009054906101000a900473ffffffffffffffffffffffffffffffffffffffff1673ffffffffffffffffffffffffffffffffffffffff16600d600083815260200190815260200160002060009054906101000a900473ffffffffffffffffffffffffffffffffffffffff1673ffffffffffffffffffffffffffffffffffffffff161415611896576000600e6000838152602001908152602001600020819055505b80806118a190611d0b565b9150506117e9565b50611963565b600160009054906101000a900473ffffffffffffffffffffffffffffffffffffffff1673ffffffffffffffffffffffffffffffffffffffff166342842e0e3060008054906101000a900473ffffffffffffffffffffffffffffffffffffffff166002546040518463ffffffff1660e01b815260040161193093929190611f78565b600060405180830381600087803b15801561194a57600080fd5b505af115801561195e573d6000803e3d6000fd5b505050505b7f7d7570b046e5ead3a4f3fbc9fa2445113625a1e79823776146316bafed6b8cc5600a60009054906101000a900473ffffffffffffffffffffffffffffffffffffffff16600c546040516119b8929190611ce2565b60405180910390a1565b6000600f60008373ffffffffffffffffffffffffffffffffffffffff1673ffffffffffffffffffffffffffffffffffffffff168152602001908152602001600020549050919050565b6000819050919050565b611a1e81611a0b565b82525050565b6000602082019050611a396000830184611a15565b92915050565b60008115159050919050565b611a5481611a3f565b82525050565b6000602082019050611a6f6000830184611a4b565b92915050565b600080fd5b600073ffffffffffffffffffffffffffffffffffffffff82169050919050565b6000611aa582611a7a565b9050919050565b611ab581611a9a565b8114611ac057600080fd5b50565b600081359050611ad281611aac565b92915050565b600060208284031215611aee57611aed611a75565b5b6000611afc84828501611ac3565b91505092915050565b611b0e81611a0b565b8114611b1957600080fd5b50565b600081359050611b2b81611b05565b92915050565b600060208284031215611b4757611b46611a75565b5b6000611b5584828501611b1c565b91505092915050565b6000819050919050565b6000611b83611b7e611b7984611a7a565b611b5e565b611a7a565b9050919050565b6000611b9582611b68565b9050919050565b6000611ba782611b8a565b9050919050565b611bb781611b9c565b82525050565b6000602082019050611bd26000830184611bae565b92915050565b611be181611a9a565b82525050565b6000602082019050611bfc6000830184611bd8565b92915050565b600082825260208201905092915050565b7f4f6e6c79206f776e657200000000000000000000000000000000000000000000600082015250565b6000611c49600a83611c02565b9150611c5482611c13565b602082019050919050565b60006020820190508181036000830152611c7881611c3c565b9050919050565b7f4e487b7100000000000000000000000000000000000000000000000000000000600052601160045260246000fd5b6000611cb982611a0b565b9150611cc483611a0b565b925082821015611cd757611cd6611c7f565b5b828203905092915050565b6000604082019050611cf76000830185611bd8565b611d046020830184611a15565b9392505050565b6000611d1682611a0b565b91507fffffffffffffffffffffffffffffffffffffffffffffffffffffffffffffffff821415611d4957611d48611c7f565b5b600182019050919050565b7f4e487b7100000000000000000000000000000000000000000000000000000000600052601260045260246000fd5b6000611d8e82611a0b565b9150611d9983611a0b565b925082611da957611da8611d54565b5b828206905092915050565b6000611dbf82611a0b565b91506000821415611dd357611dd2611c7f565b5b600182039050919050565b7f6e6f742073746172746564000000000000000000000000000000000000000000600082015250565b6000611e14600b83611c02565b9150611e1f82611dde565b602082019050919050565b60006020820190508181036000830152611e4381611e07565b9050919050565b7f656e646564000000000000000000000000000000000000000000000000000000600082015250565b6000611e80600583611c02565b9150611e8b82611e4a565b602082019050919050565b60006020820190508181036000830152611eaf81611e73565b9050919050565b6000611ec182611a0b565b9150611ecc83611a0b565b9250827fffffffffffffffffffffffffffffffffffffffffffffffffffffffffffffffff03821115611f0157611f00611c7f565b5b828201905092915050565b7f76616c7565203c20686967686573740000000000000000000000000000000000600082015250565b6000611f42600f83611c02565b9150611f4d82611f0c565b602082019050919050565b60006020820190508181036000830152611f7181611f35565b9050919050565b6000606082019050611f8d6000830186611bd8565b611f9a6020830185611bd8565b611fa76040830184611a15565b949350505050565b611fb881611a3f565b8114611fc357600080fd5b50565b600081519050611fd581611faf565b92915050565b600060208284031215611ff157611ff0611a75565b5b6000611fff84828501611fc6565b91505092915050565b7f7374617274656400000000000000000000000000000000000000000000000000600082015250565b600061203e600783611c02565b915061204982612008565b602082019050919050565b6000602082019050818103600083015261206d81612031565b9050919050565b7f6e6f742073656c6c657200000000000000000000000000000000000000000000600082015250565b60006120aa600a83611c02565b91506120b582612074565b602082019050919050565b600060208201905081810360008301526120d98161209d565b9050919050565b7f6e6f7420656e6465640000000000000000000000000000000000000000000000600082015250565b6000612116600983611c02565b9150612121826120e0565b602082019050919050565b6000602082019050818103600083015261214581612109565b905091905056fea264697066735822122090dc4c0c80968872018a76afe0d57aa7c0cfd43f883d625d3cbdf4327da8ff3764736f6c634300080b0033",
  "immutableReferences": {},
  "source": "// SPDX-License-Identifier: MIT\r\npragma solidity >=0.4.22 <0.9.0;\r\n\r\ninterface IERC721 {\r\n    function safeTransferFrom(\r\n        address from,\r\n        address to,\r\n        uint tokenId\r\n    ) external;\r\n\r\n    function transferFrom(\r\n        address,\r\n        address,\r\n        uint\r\n    ) external;\r\n}\r\n\r\ninterface IERC20 {\r\n    function transfer(\r\n        address,\r\n        uint\r\n    ) external;\r\n\r\n    function transferFrom(\r\n        address, \r\n        address, \r\n        uint\r\n        ) external \r\n        returns \r\n        (bool);\r\n\r\n     function approve(\r\n        address, \r\n        uint256\r\n        ) external \r\n        returns \r\n        (bool);\r\n}\r\n\r\ncontract Auction {\r\n    event Start();\r\n    event Bid(address indexed sender, uint amount);\r\n    event Withdraw(address indexed bidder, uint amount);\r\n    event End(address winner, uint amount);\r\n\r\n    address public owner;    \r\n    IERC721 public nftAddress;\r\n    uint public nftId;\r\n    address public tokenAddress;\r\n    uint public stopTime;\r\n    uint public startTime;\r\n    uint public auctionPeriod;     \r\n    bool public started;\r\n    bool public ended;\r\n    uint public bidID;\r\n    uint public bidStep;\r\n    address public highestBidder;\r\n    uint public highestBid;\r\n    uint public price;\r\n    mapping(uint => address) public usersAddr;\r\n    mapping(uint => uint) public usersBids;\r\n    mapping(address => uint) public balances;    \r\n\r\n    constructor(\r\n        address _nftAddress,\r\n        uint _nftId,\r\n        address _tokenAddress,\r\n        uint _startingBid,\r\n        uint _bidStep,        \r\n        uint _auctionPeriod\r\n    ) {\r\n        nftAddress = IERC721(_nftAddress);\r\n        nftId = _nftId;\r\n        owner = msg.sender;\r\n        highestBid = _startingBid;\r\n        price = _startingBid;\r\n        bidStep = _bidStep;\r\n        tokenAddress = _tokenAddress;\r\n        auctionPeriod = _auctionPeriod;\r\n    }\r\n\r\n    function start() external {\r\n        require(!started, \"started\");\r\n        require(msg.sender == owner, \"not seller\");\r\n\r\n        nftAddress.transferFrom(msg.sender, address(this), nftId);\r\n        started = true;\r\n        startTime = block.timestamp;\r\n        stopTime = startTime + auctionPeriod;\r\n\r\n        emit Start();\r\n    }\r\n\r\n    function bid(uint _amount) external {\r\n        require(started, \"not started\");\r\n        require(block.timestamp < stopTime, \"ended\");\r\n        uint totalBids = (balances[msg.sender] + _amount) - (balances[msg.sender] + _amount)%bidStep;\r\n        require((totalBids + bidStep) > highestBid, \"value < highest\");\r\n\r\n        highestBidder = msg.sender;\r\n        if (highestBidder != address(0)) {\r\n            \r\n            usersAddr[bidID] = msg.sender;\r\n            usersBids[bidID] = _amount;\r\n            balances[msg.sender] += _amount;\r\n            bidID++;\r\n        }\r\n        price = (highestBid - highestBid%bidStep) + bidStep;\r\n        highestBid = balances[msg.sender];\r\n        IERC20(tokenAddress).transferFrom(msg.sender, address(this), _amount);\r\n\r\n        emit Bid(msg.sender, _amount);\r\n    }\r\n\r\n    function getBalance(address _address) public view returns(uint) {\r\n        return balances[_address];\r\n    }\r\n\r\n    function withdraw() external {\r\n        if ((stopTime - block.timestamp) > 12 hours || block.timestamp >= stopTime) {\r\n            IERC20(tokenAddress).transfer(msg.sender, balances[msg.sender]); \r\n            emit Withdraw(msg.sender, balances[msg.sender]);\r\n            balances[msg.sender] = 0;           \r\n            for (uint256 index = 0; index < bidID; index++) {\r\n                if (usersAddr[index] == msg.sender) {\r\n                    usersBids[index] = 0;\r\n                }\r\n            }\r\n            if (msg.sender == highestBidder) {\r\n                address newHighestBidder;\r\n                uint newHighestBid;\r\n                for (uint256 index = 0; index < bidID; index++) {\r\n                    if (newHighestBid < balances[usersAddr[index]]){\r\n                        newHighestBid = balances[usersAddr[index]];\r\n                        newHighestBidder = usersAddr[index];\r\n                    }\r\n                }\r\n                highestBidder = newHighestBidder;\r\n                highestBid = newHighestBid;\r\n                price = highestBid - highestBid%bidStep;\r\n            }         \r\n        } else {\r\n            uint amount;\r\n            for (uint256 index = bidID; index >= 0; index--) {                \r\n                if (usersAddr[index] == msg.sender) {\r\n                amount = usersBids[index];\r\n                usersBids[index] = 0;\r\n                break;\r\n                }\r\n            }            \r\n            IERC20(tokenAddress).transfer(msg.sender, amount);\r\n            emit Withdraw(msg.sender, amount);\r\n            balances[msg.sender] -= amount;\r\n            if (msg.sender == highestBidder) {\r\n                address newHighestBidder;\r\n                uint newHighestBid;\r\n                for (uint256 index = 0; index < bidID; index++) {\r\n                    if (newHighestBid < balances[usersAddr[index]]){\r\n                        newHighestBid = balances[usersAddr[index]];\r\n                        newHighestBidder = usersAddr[index];\r\n                    }\r\n                }\r\n                highestBidder = newHighestBidder;\r\n                highestBid = newHighestBid;\r\n                price = highestBid - highestBid%bidStep;\r\n            }         \r\n        }\r\n        \r\n    }\r\n\r\n    function end() public {\r\n        require(started, \"not started\");\r\n        require(block.timestamp >= stopTime, \"not ended\");\r\n        require(!ended, \"ended\");\r\n\r\n        ended = true;\r\n        if (highestBidder != address(0)) {\r\n            nftAddress.safeTransferFrom(address(this), highestBidder, nftId);\r\n            IERC20(tokenAddress).transfer(owner, price);\r\n            balances[highestBidder] -= price;\r\n            for (uint256 index = 0; index < bidID; index++) {\r\n                if (usersAddr[index] == highestBidder) {\r\n                    usersBids[index] = 0;\r\n                }\r\n            }\r\n        } else {\r\n            nftAddress.safeTransferFrom(address(this), owner, nftId);\r\n        }\r\n        emit End(highestBidder, price);\r\n    }\r\n\r\n    function stop() external {\r\n        require(owner == msg.sender, \"Only owner\");\r\n        stopTime = block.timestamp;\r\n        end();\r\n    }\r\n}",
  "sourcePath": "C:\\Users\\1\\OneDrive\\\\AuctionNFT\\contracts\\Auction.sol",
  "compiler": {
    "name": "solc",
    "version": "0.8.11+commit.d7f03943.Emscripten.clang"
  },
  "schemaVersion": "3.4.4",
  "updatedAt": "2022-02-14T10:14:33.814Z",
  "devdoc": {
    "kind": "dev",
    "methods": {},
    "version": 1
  },
  "userdoc": {
    "kind": "user",
    "methods": {},
    "version": 1
  }
}